{
  "_format": "hh-sol-artifact-1",
  "contractName": "DocumentSender",
  "sourceName": "contracts/DocumentSender.sol",
  "abi": [
    {
      "anonymous": false,
      "inputs": [
        {
          "indexed": true,
          "internalType": "uint256",
          "name": "id",
          "type": "uint256"
        },
        {
          "indexed": true,
          "internalType": "address",
          "name": "sender",
          "type": "address"
        },
        {
          "indexed": true,
          "internalType": "address",
          "name": "recipient",
          "type": "address"
        },
        {
          "indexed": false,
          "internalType": "bytes32",
          "name": "hash",
          "type": "bytes32"
        },
        {
          "indexed": false,
          "internalType": "string",
          "name": "uri",
          "type": "string"
        },
        {
          "indexed": false,
          "internalType": "uint256",
          "name": "timestamp",
          "type": "uint256"
        }
      ],
      "name": "DocumentSent",
      "type": "event"
    },
    {
      "inputs": [
        {
          "internalType": "uint256",
          "name": "id",
          "type": "uint256"
        }
      ],
      "name": "getDoc",
      "outputs": [
        {
          "components": [
            {
              "internalType": "address",
              "name": "sender",
              "type": "address"
            },
            {
              "internalType": "address",
              "name": "recipient",
              "type": "address"
            },
            {
              "internalType": "bytes32",
              "name": "hash",
              "type": "bytes32"
            },
            {
              "internalType": "string",
              "name": "uri",
              "type": "string"
            },
            {
              "internalType": "uint256",
              "name": "timestamp",
              "type": "uint256"
            }
          ],
          "internalType": "struct DocumentSender.Doc",
          "name": "",
          "type": "tuple"
        }
      ],
      "stateMutability": "view",
      "type": "function"
    },
    {
      "inputs": [
        {
          "internalType": "address",
          "name": "recipient",
          "type": "address"
        },
        {
          "internalType": "bytes32",
          "name": "hash",
          "type": "bytes32"
        },
        {
          "internalType": "string",
          "name": "uri",
          "type": "string"
        }
      ],
      "name": "sendDocument",
      "outputs": [],
      "stateMutability": "nonpayable",
      "type": "function"
    },
    {
      "inputs": [],
      "name": "totalDocs",
      "outputs": [
        {
          "internalType": "uint256",
          "name": "",
          "type": "uint256"
        }
      ],
      "stateMutability": "view",
      "type": "function"
    }
  ],
  "bytecode": "0x608060405234801561001057600080fd5b5061072b806100206000396000f3fe608060405234801561001057600080fd5b50600436106100415760003560e01c80632ba665e5146100465780637f1429b01461006f578063a395f7c014610084575b600080fd5b6100596100543660046103dc565b610095565b60405161006691906103f5565b60405180910390f35b61008261007d366004610482565b610200565b005b600054604051908152602001610066565b6040805160a08101825260008082526020820181905291810182905260608082015260808101829052905482106101005760405162461bcd60e51b815260206004820152600a6024820152691a5b9d985b1a59081a5960b21b60448201526064015b60405180910390fd5b6000828154811061011357610113610517565b60009182526020918290206040805160a081018252600590930290910180546001600160a01b0390811684526001820154169383019390935260028301549082015260038201805491929160608401919061016d9061052d565b80601f01602080910402602001604051908101604052809291908181526020018280546101999061052d565b80156101e65780601f106101bb576101008083540402835291602001916101e6565b820191906000526020600020905b8154815290600101906020018083116101c957829003601f168201915b505050505081526020016004820154815250509050919050565b6001600160a01b03841661024b5760405162461bcd60e51b81526020600482015260126024820152711c9958da5c1a595b9d081c995c5d5a5c995960721b60448201526064016100f7565b826102885760405162461bcd60e51b815260206004820152600d60248201526c1a185cda081c995c5d5a5c9959609a1b60448201526064016100f7565b60006040518060a00160405280336001600160a01b03168152602001866001600160a01b0316815260200185815260200184848080601f01602080910402602001604051908101604052809392919081815260200183838082843760009201829052509385525050426020938401525083546001808201865594825290829020835160059092020180546001600160a01b03199081166001600160a01b0393841617825592840151948101805490931694909116939093179055604081015160028301556060810151909190600382019061036390826105ce565b5060809190910151600490910155600080546103819060019061068e565b9050846001600160a01b0316336001600160a01b0316827fa0f0b98b5b51a29391ff3f53e33b665f61638e304d73da23433b99d526e665db878787426040516103cd94939291906106b5565b60405180910390a45050505050565b6000602082840312156103ee57600080fd5b5035919050565b6000602080835260018060a01b038085511660208501528060208601511660408501525060408401516060840152606084015160a0608085015280518060c086015260005b818110156104565782810184015186820160e00152830161043a565b50600060e08287010152608086015160a086015260e0601f19601f830116860101935050505092915050565b6000806000806060858703121561049857600080fd5b84356001600160a01b03811681146104af57600080fd5b935060208501359250604085013567ffffffffffffffff808211156104d357600080fd5b818701915087601f8301126104e757600080fd5b8135818111156104f657600080fd5b88602082850101111561050857600080fd5b95989497505060200194505050565b634e487b7160e01b600052603260045260246000fd5b600181811c9082168061054157607f821691505b60208210810361056157634e487b7160e01b600052602260045260246000fd5b50919050565b634e487b7160e01b600052604160045260246000fd5b601f8211156105c9576000816000526020600020601f850160051c810160208610156105a65750805b601f850160051c820191505b818110156105c5578281556001016105b2565b5050505b505050565b815167ffffffffffffffff8111156105e8576105e8610567565b6105fc816105f6845461052d565b8461057d565b602080601f83116001811461063157600084156106195750858301515b600019600386901b1c1916600185901b1785556105c5565b600085815260208120601f198616915b8281101561066057888601518255948401946001909101908401610641565b508582101561067e5787850151600019600388901b60f8161c191681555b5050505050600190811b01905550565b818103818111156106af57634e487b7160e01b600052601160045260246000fd5b92915050565b848152606060208201528260608201528284608083013760006080848301015260006080601f19601f86011683010190508260408301529594505050505056fea2646970667358221220567852341d49e605a45c5509cc5d604e1e33490599dc42ff7d18c27eb289cf9a64736f6c63430008180033",
  "linkReferences": {},
  "deployedLinkReferences": {}
}